:020000040000FA
:100000000C9462000C948A000C948A000C948A0070
:100010000C948A000C948A000C948A000C948A0038
:100020000C948A000C948A000C948A000C948A0028
:100030000C948A000C948A000C948A000C948A0018
:100040000C943A040C948A000C9408040C94E20377
:100050000C948A000C948A000C948A000C948A00F8
:100060000C948A000C948A000000000024002700F1
:100070002A0000000000250028002B0000000000DE
:1000800023002600290004040404040404040202DA
:100090000202020203030303030301020408102007
:1000A0004080010204081020010204081020000012
:1000B0000008000201000003040700000000000027
:1000C0000000840411241FBECFEFD8E0DEBFCDBFF7
:1000D00011E0A0E0B1E0EAE7FBE002C005900D927C
:1000E000A835B107D9F722E0A8E5B1E001C01D921B
:1000F000A631B207E1F710E0C2E6D0E004C02197D4
:10010000FE010E94B505C136D107C9F70E94CE0491
:100110000C94BB050C940000AF92BF92CF92DF927B
:10012000EF92FF920F931F93CF93DF936C017B01AC
:100130008B01040F151FEB015E01AE18BF08C0173D
:10014000D10759F06991D601ED91FC910190F081B0
:10015000E02DC6010995892B79F7C501DF91CF9173
:100160001F910F91FF90EF90DF90CF90BF90AF90D5
:100170000895FC01538D448D252F30E0842F90E0AD
:10018000821B930B541710F0CF9608950197089592
:10019000FC01918D828D981761F0A28DAE0FBF2F5B
:1001A000B11D5D968C91928D9F5F9F73928F90E0B1
:1001B00008958FEF9FEF0895FC01918D828D981720
:1001C00031F0828DE80FF11D858D90E008958FEF5D
:1001D0009FEF0895FC01918D228D892F90E0805C26
:1001E0009F4F821B91098F739927089581E691E0B3
:1001F0000E94EA0021E0892B09F420E0822F089573
:1002000080E090E0892B29F00E94F60081110C9487
:1002100000000895FC01A48DA80FB92FB11DA35AA9
:10022000BF4F2C91848D90E001968F739927848F16
:10023000A689B7892C93A089B1898C918370806439
:100240008C93938D848D981306C00288F389E02DDA
:1002500080818F7D80830895EF92FF920F931F938B
:10026000CF93DF93EC0181E0888F9B8D8C8D981369
:100270001AC0E889F989808185FF15C09FB7F89475
:10028000EE89FF896083E889F989808183708064C1
:1002900080839FBF81E090E0DF91CF911F910F910C
:1002A000FF90EF900895F62E0B8D10E00F5F1F4F1B
:1002B0000F731127E02E8C8D8E110CC00FB607FC2A
:1002C000FACFE889F989808185FFF5CFCE010E94B8
:1002D0000A01F1CFEB8DEC0FFD2FF11DE35AFF4F1B
:1002E000F0829FB7F8940B8FEA89FB898081806246
:1002F000CFCFCF93DF93EC01888D8823B9F0AA8903
:10030000BB89E889F9898C9185FD03C0808186FDD0
:100310000DC00FB607FCF7CF8C9185FFF2CF80811F
:1003200085FFEDCFCE010E940A01E9CFDF91CF9189
:100330000895833081F028F4813099F08230A9F05B
:1003400008958730A9F08830C9F08430B1F48091E5
:1003500080008F7D03C0809180008F778093800024
:10036000089584B58F7784BD089584B58F7DFBCFC4
:100370008091B0008F778093B00008958091B00095
:100380008F7DF9CF1F93CF93DF93282F30E0F901B2
:10039000E255FF4F8491F901E656FF4FD491F901E0
:1003A000EA57FF4FC491CC23A9F0162F81110E9468
:1003B0009901EC2FF0E0EE0FFF1FEE58FF4FA591D3
:1003C000B4918FB7F894EC91111108C0D095DE2349
:1003D000DC938FBFDF91CF911F910895DE2BF8CF73
:1003E000CF93DF9390E0FC01E656FF4F24918A57AC
:1003F0009F4FFC0184918823D1F090E0880F991FD2
:10040000FC01E859FF4FA591B491FC01EE58FF4F54
:10041000C591D49161110EC09FB7F8948C91E22FD1
:10042000E0958E238C932881E223E8839FBFDF91A0
:10043000CF9108958FB7F894EC91E22BEC938FBF96
:10044000F6CF3FB7F89480915D0190915E01A09145
:100450005F01B091600126B5A89B05C02F3F19F040
:100460000196A11DB11D3FBFBA2FA92F982F882734
:10047000BC01CD01620F711D811D911D42E0660F0F
:10048000771F881F991F4A95D1F708958F929F92E1
:10049000AF92BF92CF92DF92EF92FF924B015C013D
:1004A0000E9421026B017C010E9421026C197D09CE
:1004B0008E099F09683E734081059105A8F321E0EC
:1004C000821A9108A108B10888EEC80E83E0D81EF0
:1004D000E11CF11C81149104A104B10429F7FF90DF
:1004E000EF90DF90CF90BF90AF909F908F90089546
:1004F000089590E080E00895FC0101900020E9F764
:100500003197AF01481B590BBC018EEF91E00C9461
:100510008C00CF93DF93EC0160E08E810E94C201DA
:1005200061E08E810E94C20160E08E810E94C20162
:100530008BE891E00197F1F7DF91CF910895CF9289
:10054000DF92EF92FF920F931F93CF93DF936C0193
:100550007C0187E0E80EF11CD0E0C0E0062F10E03F
:10056000B8010C2E02C0759567950A94E2F7617088
:10057000F70181917F010E94C2012196C430D1050B
:1005800079F7C601DF91CF911F910F91FF90EF9006
:10059000DF90CF900C948902CF92DF92EF92FF927E
:1005A0000F931F93CF93DF93EC01F62E642F8C8172
:1005B0000E94C2018D818F3F19F060E00E94C2014C
:1005C0000F2D10E08F8584FF25C06E0187E0C80ED7
:1005D000D11CF12CE12CB8010E2C02C07595679549
:1005E0000A94E2F76170F60181916F010E94C201E5
:1005F000FFEFEF1AFF0A88E0E816F10461F7CE0179
:10060000DF91CF911F910F91FF90EF90DF90CF90EE
:100610000C948902B80184E0759567958A95E1F795
:10062000CE010E949F026F2DCE01DF91CF911F91CD
:100630000F91FF90EF90DF90CF900C949F0240E0DD
:10064000682F8EEF91E00C94CC0281E00E941F0392
:100650008BE39FE10197F1F70895CF93DF93823009
:1006600029F490910D02986090930D0280931102ED
:100670001092120280E48093130280E180931402AE
:1006800080E58093150261E0809102020E94F001F2
:10069000809103028F3F19F061E00E94F00161E058
:1006A000809104020E94F001CEEFD1E09E012E5F06
:1006B000314080910D0284FD0BC084E090E02196D2
:1006C0002817390744F461E08E810E94F001EECFD3
:1006D00088E090E0F4CF8BE39DE00197F1F760E0D4
:1006E000809102020E94C20160E0809104020E9497
:1006F000C201809103028F3F19F060E00E94C201A5
:1007000080910D0284FD34C063E08EEF91E00E9481
:100710009F02CBE4D6E4CE010197F1F763E08EEFC0
:1007200091E00E949F022197F1F763E08EEF91E044
:100730000E949F0283E592E00197F1F762E08EEF5D
:1007400091E00E949F0280910D0280620E941F032F
:1007500084E080930E028CE00E941F030E94250318
:1007600082E080930F0286E0DF91CF910C941F030B
:1007700080620E941F038BE496E40197F1F7809159
:100780000D0280620E941F0383E592E00197F1F75A
:1007900080910D0280620E941F03D5CF90911102BB
:1007A000891710F08FEF890FE82FF0E0E250FE4F2D
:1007B000848980680C941F0341E00E94CC0281E090
:1007C00090E008951F920F920FB60F9211242F936D
:1007D0003F934F935F936F937F938F939F93AF93C9
:1007E000BF93EF93FF9381E691E00E940A01FF918E
:1007F000EF91BF91AF919F918F917F916F915F9199
:100800004F913F912F910F900FBE0F901F90189511
:100810001F920F920FB60F9211242F938F939F93D5
:10082000EF93FF93E0917101F09172018081E0916B
:100830007701F091780182FD1BC0908180917A014F
:100840008F5F8F7320917B01821741F0E0917A01D5
:10085000F0E0EF59FE4F958F80937A01FF91EF9171
:100860009F918F912F910F900FBE0F901F90189511
:100870008081F4CF1F920F920FB60F9211242F9305
:100880003F938F939F93AF93BF9380915901909122
:100890005A01A0915B01B0915C013091580123E0B5
:1008A000230F2D3758F50196A11DB11D2093580136
:1008B0008093590190935A01A0935B01B0935C011E
:1008C00080915D0190915E01A0915F01B091600106
:1008D0000196A11DB11D80935D0190935E01A093CF
:1008E0005F01B0936001BF91AF919F918F913F9154
:1008F0002F910F900FBE0F901F90189526E8230F91
:100900000296A11DB11DD2CFE1E6F1E01382128261
:1009100088EE93E0A0E0B0E084839583A683B7835C
:1009200084E091E09183808385EC90E095878487D3
:1009300084EC90E09787868780EC90E0918B808BA9
:1009400081EC90E0938B828B82EC90E0958B848B92
:1009500086EC90E0978B868B118E128E138E148E00
:10096000EEEFF1E01382128286E191E091838083C1
:100970008CE084838FEF85838BE0868385E087839B
:1009800084E0808783E0818782E0828713861486F3
:1009900015861686178681E00C942D03789484B50D
:1009A000826084BD84B5816084BD85B5826085BD6B
:1009B00085B5816085BD80916E00816080936E00F9
:1009C00010928100809181008260809381008091EB
:1009D000810081608093810080918000816080939C
:1009E00080008091B10084608093B1008091B0005C
:1009F00081608093B00080917A00846080937A0057
:100A000080917A00826080937A0080917A00816080
:100A100080937A0080917A00806880937A001092A7
:100A2000C10082E00E942D03E0917101F0917201FA
:100A300082E08083E0916D01F0916E011082E0917F
:100A40006F01F09170018FEC808310927901E09139
:100A50007501F091760186E08083E0917301F09159
:100A60007401808180618083E0917301F091740151
:100A7000808188608083E0917301F09174018081AE
:100A800080688083E0917301F091740180818F7D93
:100A9000808360E088E00E94F00180E00E94CE0345
:100AA0008EE191E00E947C0281E00E94CE038FE201
:100AB00091E00E947C0268EE73E080E090E00E948A
:100AC0004602C6EBD0E002EA10E09EE8E92E90E094
:100AD000F92E20E0C22E20E0D22EFE018491F801F2
:100AE000A490F701B490BB2069F181110E94990193
:100AF000EB2DF0E0EE0FFF1FE458FF4FA591B491EE
:100B00008C91A822F9F00E9425036AE081E691E029
:100B10000E942C0181E00E94CE038EE391E00E94AE
:100B20007C0262E370E080E090E00E944602C11423
:100B3000D10499F20E94F600882309F4CECF0E94D6
:100B40000000CBCF0E94250364E181E691E00E9482
:100B50002C0181E00E94CE0349E050E06EE471E098
:100B60008EEF91E00E948C00DCCFEE0FFF1F05900E
:100B7000F491E02D0994F894FFCF000000002C01BF
:100B80008C00B9007901EA00C800DC000000000018
:100B9000DC038C00790278024D4F54494F4E2044BB
:100BA0004554454354494F4E0049736D61696C2764
:100BB0007320486F757365004D4F54494F4E204464
:100BC00045544543544544004E4F204D4F54494FE2
:020BD0004E00D5
:107E0000112484B714BE81FFF0D085E080938100F7
:107E100082E08093C00088E18093C10086E0809377
:107E2000C20080E18093C4008EE0C9D0259A86E02C
:107E300020E33CEF91E0309385002093840096BBD3
:107E4000B09BFECF1D9AA8958150A9F7CC24DD24C4
:107E500088248394B5E0AB2EA1E19A2EF3E0BF2EE7
:107E6000A2D0813461F49FD0082FAFD0023811F036
:107E7000013811F484E001C083E08DD089C08234E0
:107E800011F484E103C0853419F485E0A6D080C0E4
:107E9000853579F488D0E82EFF2485D0082F10E0AE
:107EA000102F00270E291F29000F111F8ED06801E7
:107EB0006FC0863521F484E090D080E0DECF843638
:107EC00009F040C070D06FD0082F6DD080E0C81688
:107ED00080E7D80618F4F601B7BEE895C0E0D1E017
:107EE00062D089930C17E1F7F0E0CF16F0E7DF06D8
:107EF00018F0F601B7BEE89568D007B600FCFDCFD4
:107F0000A601A0E0B1E02C9130E011968C91119780
:107F100090E0982F8827822B932B1296FA010C0160
:107F200087BEE89511244E5F5F4FF1E0A038BF0790
:107F300051F7F601A7BEE89507B600FCFDCF97BE46
:107F4000E89526C08437B1F42ED02DD0F82E2BD052
:107F50003CD0F601EF2C8F010F5F1F4F84911BD097
:107F6000EA94F801C1F70894C11CD11CFA94CF0C13
:107F7000D11C0EC0853739F428D08EE10CD085E9AC
:107F80000AD08FE07ACF813511F488E018D01DD067
:107F900080E101D065CF982F8091C00085FFFCCF94
:107FA0009093C60008958091C00087FFFCCF809118
:107FB000C00084FD01C0A8958091C6000895E0E648
:107FC000F0E098E1908380830895EDDF803219F02E
:107FD00088E0F5DFFFCF84E1DECF1F93182FE3DFCA
:107FE0001150E9F7F2DF1F91089580E0E8DFEE27F6
:047FF000FF270994CA
:027FFE00040479
:00000001FF
