:020000040000FA
:100000000C945D000C9485000C9485000C94850084
:100010000C9485000C9485000C9485000C9485004C
:100020000C9485000C9485000C9485000C9485003C
:100030000C9485000C9485000C9485000C9485002C
:100040000C9464040C9485000C9432040C940C04FD
:100050000C9485000C9485000C9485000C9485000C
:100060000C9485000C94850000000008000201003B
:100070000003040700000000000000000000000072
:10008000250028002B0000000000240027002A0083
:10009000040404040404040402020202020203032E
:1000A0000303030301020408102040800102040836
:1000B0001020010204081020AE0411241FBECFEF4F
:1000C000D8E0DEBFCDBF11E0A0E0B1E0ECE3FCE0A2
:1000D00002C005900D92A238B107D9F722E0A2E83C
:1000E000B1E001C01D92A034B207E1F710E0CDE508
:1000F000D0E004C02197FE010E941606CC35D1073E
:10010000C9F70E94F8040C941C060C94000090E0BF
:10011000FC01EC55FF4F249180579F4FFC018491C7
:10012000882399F090E0880F991FFC01EA57FF4F50
:10013000A591B491FC01E458FF4F859194918FB73C
:10014000F894EC91E22BEC938FBF0895AF92BF929D
:10015000CF92DF92EF92FF920F931F93CF93DF9393
:100160006C017B018B01040F151FEB015E01AE18C2
:10017000BF08C017D10759F06991D601ED91FC91E4
:100180000190F081E02DC6010995892B79F7C50111
:10019000DF91CF911F910F91FF90EF90DF90CF9063
:1001A000BF90AF900895FC01538D448D252F30E012
:1001B000842F90E0821B930B541710F0CF96089574
:1001C00001970895FC01918D828D981761F0A28DA1
:1001D000AE0FBF2FB11D5D968C91928D9F5F9F7367
:1001E000928F90E008958FEF9FEF0895FC01918D1D
:1001F000828D981731F0828DE80FF11D858D90E08A
:1002000008958FEF9FEF0895FC01918D228D892F26
:1002100090E0805C9F4F821B91098F73992708950E
:100220008BE891E00E94040121E0892B09F420E091
:10023000822F089580E090E0892B29F00E94100120
:1002400081110C9400000895FC01A48DA80FB92F12
:10025000B11DA35ABF4F2C91848D90E001968F73EE
:100260009927848FA689B7892C93A089B1898C910D
:10027000837080648C93938D848D981306C002885C
:10028000F389E02D80818F7D80830895EF92FF9226
:100290000F931F93CF93DF93EC0181E0888F9B8DA9
:1002A0008C8D98131AC0E889F989808185FF15C063
:1002B0009FB7F894EE89FF896083E889F989808186
:1002C0008370806480839FBF81E090E0DF91CF9155
:1002D0001F910F91FF90EF900895F62E0B8D10E077
:1002E0000F5F1F4F0F731127E02E8C8D8E110CC0E6
:1002F0000FB607FCFACFE889F989808185FFF5CF31
:10030000CE010E942401F1CFEB8DEC0FFD2FF11DEA
:10031000E35AFF4FF0829FB7F8940B8FEA89FB896D
:1003200080818062CFCFCF93DF93EC01888D8823CB
:10033000B9F0AA89BB89E889F9898C9185FD03C048
:10034000808186FD0DC00FB607FCF7CF8C9185FF2D
:10035000F2CF808185FFEDCFCE010E942401E9CF4D
:10036000DF91CF91089590E0FC01E859FF4F24916F
:10037000FC01EC55FF4F3491FC01E057FF4FE49135
:10038000EE23C9F0222339F0233001F1A8F4213003
:1003900019F1223029F1F0E0EE0FFF1FE458FF4F72
:1003A000A591B4918FB7F894EC91611126C0309566
:1003B0003E233C938FBF08952730A9F02830C9F021
:1003C000243049F7809180008F7D03C080918000A8
:1003D0008F7780938000DFCF84B58F7784BDDBCFAC
:1003E00084B58F7DFBCF8091B0008F778093B00074
:1003F000D2CF8091B0008F7DF9CF3E2BDACF3FB7BF
:10040000F8948091870190918801A0918901B09121
:100410008A0126B5A89B05C02F3F19F00196A11DA2
:10042000B11D3FBFBA2FA92F982F8827BC01CD013E
:10043000620F711D811D911D42E0660F771F881F9D
:10044000991F4A95D1F708958F929F92AF92BF92CC
:10045000CF92DF92EF92FF924B015C010E94FF016D
:100460006B017C010E94FF016C197D098E099F09B7
:10047000683E734081059105A8F321E0821A910836
:10048000A108B10888EEC80E83E0D81EE11CF11C5B
:1004900081149104A104B10429F7FF90EF90DF903B
:1004A000CF90BF90AF909F908F900895089590E067
:1004B00080E00895CF93DF93EC0160E08E810E948D
:1004C000B30161E08E810E94B30160E08E810E94E1
:1004D000B3018BE891E00197F1F7DF91CF91089597
:1004E000CF92DF92EF92FF920F931F93CF93DF9300
:1004F0006C017C0187E0E80EF11CD0E0C0E0062F23
:1005000010E0B8010C2E02C0759567950A94E2F7C9
:100510006170F70181917F010E94B3012196C4307F
:10052000D10579F7C601DF91CF911F910F91FF900F
:10053000EF90DF90CF900C945A02CF92DF92EF921F
:10054000FF920F931F93CF93DF93EC01F62E642F4E
:100550008C810E94B3018D818F3F19F060E00E9471
:10056000B3010F2D10E08F8584FF25C06E0187E059
:10057000C80ED11CF12CE12CB8010E2C02C07595CF
:1005800067950A94E2F76170F60181916F010E940C
:10059000B301FFEFEF1AFF0A88E0E816F10461F7F4
:1005A000CE01DF91CF911F910F91FF90EF90DF90DF
:1005B000CF900C945A02B80184E0759567958A959E
:1005C000E1F7CE010E9470026F2DCE01DF91CF9135
:1005D0001F910F91FF90EF90DF90CF900C947002DD
:1005E00040E0682F88E292E00C949D0281E00E9436
:1005F000F0028BE39FE10197F1F70895CF93DF932A
:10060000823029F49091370298609093370280935A
:100610003B0210923C0280E480933D0280E1809393
:100620003E0280E580933F0280912C020E94870069
:1006300080912D028F3F11F00E94870080912E0241
:100640000E948700C8E2D2E09E0128523240809189
:10065000370284FD0AC084E090E02196281739070C
:100660003CF48E810E948700EFCF88E090E0F5CFC8
:100670008BE39DE00197F1F760E080912C020E94EE
:10068000B30160E080912E020E94B30180912D029F
:100690008F3F19F060E00E94B3018091370284FD22
:1006A00034C063E088E292E00E947002CBE4D6E4BA
:1006B000CE010197F1F763E088E292E00E947002B8
:1006C0002197F1F763E088E292E00E94700283E5EF
:1006D00092E00197F1F762E088E292E00E947002F6
:1006E0008091370280620E94F00284E08093380299
:1006F0008CE00E94F0020E94F60282E080933902B0
:1007000086E0DF91CF910C94F00280620E94F002AB
:100710008BE496E40197F1F78091370280620E94A2
:10072000F00283E592E00197F1F780913702806251
:100730000E94F002D5CF90913B02891710F08FEF05
:10074000890FE82FF0E0E85DFD4F848980680C9404
:10075000F00241E00E949D0281E090E00895FB01DB
:1007600001900020E9F73197AF01461B570BDC01E0
:10077000ED91FC910280F381E02D0994CF92DF92FC
:10078000EF92FF920F931F93CF93DF93CDB7DEB716
:10079000A1970FB6F894DEBF0FBECDBF9C01990F95
:1007A000440B550B19A28E010F5D1F4F8AE0C82E16
:1007B000D12CE12CF12CCA01B901A70196010E94AC
:1007C000F405605DF80162938F0121153105410543
:1007D000510589F73097E9F0BF018BE891E00E945D
:1007E000AF038C016EE171E08BE891E00E94AF03F2
:1007F000800F911FA1960FB6F894DEBF0FBECDBF3C
:10080000DF91CF911F910F91FF90EF90DF90CF90EC
:10081000089510E000E0E6CF1F920F920FB60F92FE
:1008200011242F933F934F935F936F937F938F93F5
:100830009F93AF93BF93EF93FF938BE891E00E9458
:100840002401FF91EF91BF91AF919F918F917F9183
:100850006F915F914F913F912F910F900FBE0F902D
:100860001F9018951F920F920FB60F9211242F937D
:100870008F939F93EF93FF93E0919B01F0919C01E5
:100880008081E091A101F091A20182FD1BC09081C5
:100890008091A4018F5F8F732091A501821741F091
:1008A000E091A401F0E0E557FE4F958F8093A401FD
:1008B000FF91EF919F918F912F910F900FBE0F900D
:1008C0001F9018958081F4CF1F920F920FB60F9250
:1008D00011242F933F938F939F93AF93BF93809156
:1008E000830190918401A0918501B091860130919E
:1008F000820123E0230F2D3758F50196A11DB11D6C
:10090000209382018093830190938401A0938501B9
:10091000B09386018091870190918801A09189010F
:10092000B0918A010196A11DB11D8093870190931A
:100930008801A0938901B0938A01BF91AF919F91E3
:100940008F913F912F910F900FBE0F901F90189590
:1009500026E8230F0296A11DB11DD2CFEBE8F1E0EE
:100960001382128288EE93E0A0E0B0E08483958346
:10097000A683B78384E091E09183808385EC90E047
:100980009587848784EC90E09787868780EC90E059
:10099000918B808B81EC90E0938B828B82EC90E04A
:1009A000958B848B86EC90E0978B868B118E128EC4
:1009B000138E148EE8E2F2E01382128286E191E057
:1009C000918380838CE084838FEF85838BE08683A3
:1009D00085E0878384E0808783E0818782E0828767
:1009E0001386148615861686178681E00C94FE02FF
:1009F000789484B5826084BD84B5816084BD85B5FA
:100A0000826085BD85B5816085BD80916E00816005
:100A100080936E00109281008091810082608093AB
:100A200081008091810081608093810080918000AD
:100A30008160809380008091B10084608093B100D8
:100A40008091B00081608093B00080917A008460D2
:100A500080937A0080917A00826080937A008091FE
:100A60007A00816080937A0080917A008068809318
:100A70007A001092C1008AE00E94870089E00E94FB
:100A8000870082E00E94FE02E0919B01F0919C01B0
:100A900082E08083E0919701F09198011082E091CB
:100AA0009901F0919A018FEC80831092A301E0915B
:100AB0009F01F091A00186E08083E0919D01F0917B
:100AC0009E01808180618083E0919D01F0919E0173
:100AD000808188608083E0919D01F0919E018081FA
:100AE00080688083E0919D01F0919E0180818F7DDF
:100AF000808380E00E949B0361E271E088E292E0E3
:100B00000E94AF0381E00E949B0362E371E088E2F0
:100B100092E00E94AF0368EE73E080E090E00E94F4
:100B20002402C0E0D0E08BE891E00E94E2008A302D
:100B30009105A9F50E94F60261E471E08BE891E06D
:100B40000E94AF038AE090E00E94BE0380E00E9412
:100B50009B036CE471E088E292E00E94AF0361E0E5
:100B60008AE00E94B30160E08AE00E94B30181E064
:100B70000E949B0368E571E088E292E00E94AF0367
:100B800062E370E080E090E00E942402209759F236
:100B90000E941001882339F20E940000C4CF4497BC
:100BA000A9F70E94F60261E471E08BE891E00E94EF
:100BB000AF0384E190E00E94BE0380E00E949B03AB
:100BC00068E671E088E292E00E94AF0361E089E0AC
:100BD0000E94B30160E089E00E94B30181E00E94BD
:100BE0009B0362E771E0C8CFA1E21A2EAA1BBB1BD0
:100BF000FD010DC0AA1FBB1FEE1FFF1FA217B307E9
:100C0000E407F50720F0A21BB30BE40BF50B661FFE
:100C1000771F881F991F1A9469F7609570958095C2
:100C200090959B01AC01BD01CF010895EE0FFF1F10
:100C30000590F491E02D0994F894FFCF0000000096
:100C40004601A600D30093010401E200F600000073
:100C50000000A903A600570256020D0A004D4F548A
:100C6000494F4E20444554454354494F4E00497323
:100C70006D61696C277320486F7573650050495228
:100C800053454E534F523A00424520434152454648
:100C9000554C21004D4F54494F4E20444554454337
:100CA000544544004E4F204D4F54494F4E00594F2C
:0E0CB00055204152452053414645203A290027
:107E0000112484B714BE81FFF0D085E080938100F7
:107E100082E08093C00088E18093C10086E0809377
:107E2000C20080E18093C4008EE0C9D0259A86E02C
:107E300020E33CEF91E0309385002093840096BBD3
:107E4000B09BFECF1D9AA8958150A9F7CC24DD24C4
:107E500088248394B5E0AB2EA1E19A2EF3E0BF2EE7
:107E6000A2D0813461F49FD0082FAFD0023811F036
:107E7000013811F484E001C083E08DD089C08234E0
:107E800011F484E103C0853419F485E0A6D080C0E4
:107E9000853579F488D0E82EFF2485D0082F10E0AE
:107EA000102F00270E291F29000F111F8ED06801E7
:107EB0006FC0863521F484E090D080E0DECF843638
:107EC00009F040C070D06FD0082F6DD080E0C81688
:107ED00080E7D80618F4F601B7BEE895C0E0D1E017
:107EE00062D089930C17E1F7F0E0CF16F0E7DF06D8
:107EF00018F0F601B7BEE89568D007B600FCFDCFD4
:107F0000A601A0E0B1E02C9130E011968C91119780
:107F100090E0982F8827822B932B1296FA010C0160
:107F200087BEE89511244E5F5F4FF1E0A038BF0790
:107F300051F7F601A7BEE89507B600FCFDCF97BE46
:107F4000E89526C08437B1F42ED02DD0F82E2BD052
:107F50003CD0F601EF2C8F010F5F1F4F84911BD097
:107F6000EA94F801C1F70894C11CD11CFA94CF0C13
:107F7000D11C0EC0853739F428D08EE10CD085E9AC
:107F80000AD08FE07ACF813511F488E018D01DD067
:107F900080E101D065CF982F8091C00085FFFCCF94
:107FA0009093C60008958091C00087FFFCCF809118
:107FB000C00084FD01C0A8958091C6000895E0E648
:107FC000F0E098E1908380830895EDDF803219F02E
:107FD00088E0F5DFFFCF84E1DECF1F93182FE3DFCA
:107FE0001150E9F7F2DF1F91089580E0E8DFEE27F6
:047FF000FF270994CA
:027FFE00040479
:00000001FF
